{
  "contractName": "Asset",
  "abi": [
    {
      "inputs": [
        {
          "internalType": "string",
          "name": "name",
          "type": "string"
        },
        {
          "internalType": "string",
          "name": "symbol",
          "type": "string"
        },
        {
          "internalType": "uint256",
          "name": "tokenId",
          "type": "uint256"
        },
        {
          "internalType": "string",
          "name": "tokenURI",
          "type": "string"
        }
      ],
      "payable": false,
      "stateMutability": "nonpayable",
      "type": "constructor"
    },
    {
      "anonymous": false,
      "inputs": [
        {
          "indexed": true,
          "internalType": "address",
          "name": "owner",
          "type": "address"
        },
        {
          "indexed": true,
          "internalType": "address",
          "name": "approved",
          "type": "address"
        },
        {
          "indexed": true,
          "internalType": "uint256",
          "name": "tokenId",
          "type": "uint256"
        }
      ],
      "name": "Approval",
      "type": "event"
    },
    {
      "anonymous": false,
      "inputs": [
        {
          "indexed": true,
          "internalType": "address",
          "name": "owner",
          "type": "address"
        },
        {
          "indexed": true,
          "internalType": "address",
          "name": "operator",
          "type": "address"
        },
        {
          "indexed": false,
          "internalType": "bool",
          "name": "approved",
          "type": "bool"
        }
      ],
      "name": "ApprovalForAll",
      "type": "event"
    },
    {
      "anonymous": false,
      "inputs": [
        {
          "indexed": true,
          "internalType": "address",
          "name": "from",
          "type": "address"
        },
        {
          "indexed": true,
          "internalType": "address",
          "name": "to",
          "type": "address"
        },
        {
          "indexed": true,
          "internalType": "uint256",
          "name": "tokenId",
          "type": "uint256"
        }
      ],
      "name": "Transfer",
      "type": "event"
    },
    {
      "constant": true,
      "inputs": [
        {
          "internalType": "uint256",
          "name": "",
          "type": "uint256"
        },
        {
          "internalType": "uint256",
          "name": "",
          "type": "uint256"
        }
      ],
      "name": "STR",
      "outputs": [
        {
          "internalType": "bytes",
          "name": "",
          "type": "bytes"
        }
      ],
      "payable": false,
      "stateMutability": "view",
      "type": "function"
    },
    {
      "constant": true,
      "inputs": [
        {
          "internalType": "uint256",
          "name": "",
          "type": "uint256"
        },
        {
          "internalType": "uint256",
          "name": "",
          "type": "uint256"
        }
      ],
      "name": "URI",
      "outputs": [
        {
          "internalType": "string",
          "name": "",
          "type": "string"
        }
      ],
      "payable": false,
      "stateMutability": "view",
      "type": "function"
    },
    {
      "constant": false,
      "inputs": [
        {
          "internalType": "address",
          "name": "to",
          "type": "address"
        },
        {
          "internalType": "uint256",
          "name": "tokenId",
          "type": "uint256"
        }
      ],
      "name": "approve",
      "outputs": [],
      "payable": false,
      "stateMutability": "nonpayable",
      "type": "function"
    },
    {
      "constant": true,
      "inputs": [
        {
          "internalType": "address",
          "name": "owner",
          "type": "address"
        }
      ],
      "name": "balanceOf",
      "outputs": [
        {
          "internalType": "uint256",
          "name": "",
          "type": "uint256"
        }
      ],
      "payable": false,
      "stateMutability": "view",
      "type": "function"
    },
    {
      "constant": true,
      "inputs": [],
      "name": "baseURI",
      "outputs": [
        {
          "internalType": "string",
          "name": "",
          "type": "string"
        }
      ],
      "payable": false,
      "stateMutability": "view",
      "type": "function"
    },
    {
      "constant": true,
      "inputs": [
        {
          "internalType": "uint256",
          "name": "tokenId",
          "type": "uint256"
        }
      ],
      "name": "getApproved",
      "outputs": [
        {
          "internalType": "address",
          "name": "",
          "type": "address"
        }
      ],
      "payable": false,
      "stateMutability": "view",
      "type": "function"
    },
    {
      "constant": true,
      "inputs": [
        {
          "internalType": "address",
          "name": "owner",
          "type": "address"
        },
        {
          "internalType": "address",
          "name": "operator",
          "type": "address"
        }
      ],
      "name": "isApprovedForAll",
      "outputs": [
        {
          "internalType": "bool",
          "name": "",
          "type": "bool"
        }
      ],
      "payable": false,
      "stateMutability": "view",
      "type": "function"
    },
    {
      "constant": true,
      "inputs": [],
      "name": "name",
      "outputs": [
        {
          "internalType": "string",
          "name": "",
          "type": "string"
        }
      ],
      "payable": false,
      "stateMutability": "view",
      "type": "function"
    },
    {
      "constant": true,
      "inputs": [
        {
          "internalType": "uint256",
          "name": "tokenId",
          "type": "uint256"
        }
      ],
      "name": "ownerOf",
      "outputs": [
        {
          "internalType": "address",
          "name": "",
          "type": "address"
        }
      ],
      "payable": false,
      "stateMutability": "view",
      "type": "function"
    },
    {
      "constant": false,
      "inputs": [
        {
          "internalType": "address",
          "name": "from",
          "type": "address"
        },
        {
          "internalType": "address",
          "name": "to",
          "type": "address"
        },
        {
          "internalType": "uint256",
          "name": "tokenId",
          "type": "uint256"
        }
      ],
      "name": "safeTransferFrom",
      "outputs": [],
      "payable": false,
      "stateMutability": "nonpayable",
      "type": "function"
    },
    {
      "constant": false,
      "inputs": [
        {
          "internalType": "address",
          "name": "from",
          "type": "address"
        },
        {
          "internalType": "address",
          "name": "to",
          "type": "address"
        },
        {
          "internalType": "uint256",
          "name": "tokenId",
          "type": "uint256"
        },
        {
          "internalType": "bytes",
          "name": "_data",
          "type": "bytes"
        }
      ],
      "name": "safeTransferFrom",
      "outputs": [],
      "payable": false,
      "stateMutability": "nonpayable",
      "type": "function"
    },
    {
      "constant": false,
      "inputs": [
        {
          "internalType": "address",
          "name": "to",
          "type": "address"
        },
        {
          "internalType": "bool",
          "name": "approved",
          "type": "bool"
        }
      ],
      "name": "setApprovalForAll",
      "outputs": [],
      "payable": false,
      "stateMutability": "nonpayable",
      "type": "function"
    },
    {
      "constant": true,
      "inputs": [
        {
          "internalType": "bytes4",
          "name": "interfaceId",
          "type": "bytes4"
        }
      ],
      "name": "supportsInterface",
      "outputs": [
        {
          "internalType": "bool",
          "name": "",
          "type": "bool"
        }
      ],
      "payable": false,
      "stateMutability": "view",
      "type": "function"
    },
    {
      "constant": true,
      "inputs": [],
      "name": "symbol",
      "outputs": [
        {
          "internalType": "string",
          "name": "",
          "type": "string"
        }
      ],
      "payable": false,
      "stateMutability": "view",
      "type": "function"
    },
    {
      "constant": true,
      "inputs": [
        {
          "internalType": "uint256",
          "name": "index",
          "type": "uint256"
        }
      ],
      "name": "tokenByIndex",
      "outputs": [
        {
          "internalType": "uint256",
          "name": "",
          "type": "uint256"
        }
      ],
      "payable": false,
      "stateMutability": "view",
      "type": "function"
    },
    {
      "constant": true,
      "inputs": [
        {
          "internalType": "address",
          "name": "owner",
          "type": "address"
        },
        {
          "internalType": "uint256",
          "name": "index",
          "type": "uint256"
        }
      ],
      "name": "tokenOfOwnerByIndex",
      "outputs": [
        {
          "internalType": "uint256",
          "name": "",
          "type": "uint256"
        }
      ],
      "payable": false,
      "stateMutability": "view",
      "type": "function"
    },
    {
      "constant": true,
      "inputs": [
        {
          "internalType": "uint256",
          "name": "tokenId",
          "type": "uint256"
        }
      ],
      "name": "tokenURI",
      "outputs": [
        {
          "internalType": "string",
          "name": "",
          "type": "string"
        }
      ],
      "payable": false,
      "stateMutability": "view",
      "type": "function"
    },
    {
      "constant": true,
      "inputs": [],
      "name": "totalSupply",
      "outputs": [
        {
          "internalType": "uint256",
          "name": "",
          "type": "uint256"
        }
      ],
      "payable": false,
      "stateMutability": "view",
      "type": "function"
    },
    {
      "constant": false,
      "inputs": [
        {
          "internalType": "address",
          "name": "from",
          "type": "address"
        },
        {
          "internalType": "address",
          "name": "to",
          "type": "address"
        },
        {
          "internalType": "uint256",
          "name": "tokenId",
          "type": "uint256"
        }
      ],
      "name": "transferFrom",
      "outputs": [],
      "payable": false,
      "stateMutability": "nonpayable",
      "type": "function"
    },
    {
      "constant": false,
      "inputs": [
        {
          "internalType": "uint256",
          "name": "tokenId",
          "type": "uint256"
        },
        {
          "internalType": "string",
          "name": "tokenURI",
          "type": "string"
        }
      ],
      "name": "addTokenURI",
      "outputs": [],
      "payable": false,
      "stateMutability": "nonpayable",
      "type": "function"
    },
    {
      "constant": false,
      "inputs": [
        {
          "internalType": "uint256",
          "name": "tokenId",
          "type": "uint256"
        }
      ],
      "name": "_mintToken",
      "outputs": [],
      "payable": false,
      "stateMutability": "nonpayable",
      "type": "function"
    }
  ],
  "bytecode": "0x60806040523480156200001157600080fd5b506040516200379038038062003790833981810160405260808110156200003757600080fd5b81019080805160405193929190846401000000008211156200005857600080fd5b838201915060208201858111156200006f57600080fd5b82518660018202830111640100000000821117156200008d57600080fd5b8083526020830192505050908051906020019080838360005b83811015620000c3578082015181840152602081019050620000a6565b50505050905090810190601f168015620000f15780820380516001836020036101000a031916815260200191505b50604052602001805160405193929190846401000000008211156200011557600080fd5b838201915060208201858111156200012c57600080fd5b82518660018202830111640100000000821117156200014a57600080fd5b8083526020830192505050908051906020019080838360005b838110156200018057808201518184015260208101905062000163565b50505050905090810190601f168015620001ae5780820380516001836020036101000a031916815260200191505b506040526020018051906020019092919080516040519392919084640100000000821115620001dc57600080fd5b83820191506020820185811115620001f357600080fd5b82518660018202830111640100000000821117156200021157600080fd5b8083526020830192505050908051906020019080838360005b83811015620002475780820151818401526020810190506200022a565b50505050905090810190601f168015620002755780820380516001836020036101000a031916815260200191505b5060405250505083838181620002986301ffc9a760e01b6200034460201b60201c565b620002b06380ac58cd60e01b6200034460201b60201c565b620002c863780e9d6360e01b6200034460201b60201c565b8160099080519060200190620002e0929190620008eb565b5080600a9080519060200190620002f9929190620008eb565b5062000312635b5e139f60e01b6200034460201b60201c565b505050506200032833836200044d60201b60201c565b6200033a82826200048b60201b60201c565b505050506200099a565b63ffffffff60e01b817bffffffffffffffffffffffffffffffffffffffffffffffffffffffff19161415620003e1576040517f08c379a000000000000000000000000000000000000000000000000000000000815260040180806020018281038252601c8152602001807f4552433136353a20696e76616c696420696e746572666163652069640000000081525060200191505060405180910390fd5b6001600080837bffffffffffffffffffffffffffffffffffffffffffffffffffffffff19167bffffffffffffffffffffffffffffffffffffffffffffffffffffffff1916815260200190815260200160002060006101000a81548160ff02191690831515021790555050565b6200046482826200052160201b620022621760201c565b6200047682826200075060201b60201c565b62000487816200081760201b60201c565b5050565b6200049c826200086360201b60201c565b620004f3576040517f08c379a000000000000000000000000000000000000000000000000000000000815260040180806020018281038252602c81526020018062003764602c913960400191505060405180910390fd5b80600c600084815260200190815260200160002090805190602001906200051c929190620008eb565b505050565b600073ffffffffffffffffffffffffffffffffffffffff168273ffffffffffffffffffffffffffffffffffffffff161415620005c5576040517f08c379a00000000000000000000000000000000000000000000000000000000081526004018080602001828103825260208152602001807f4552433732313a206d696e7420746f20746865207a65726f206164647265737381525060200191505060405180910390fd5b620005d6816200086360201b60201c565b156200064a576040517f08c379a000000000000000000000000000000000000000000000000000000000815260040180806020018281038252601c8152602001807f4552433732313a20746f6b656e20616c7265616479206d696e7465640000000081525060200191505060405180910390fd5b816001600083815260200190815260200160002060006101000a81548173ffffffffffffffffffffffffffffffffffffffff021916908373ffffffffffffffffffffffffffffffffffffffff160217905550620006f0600360008473ffffffffffffffffffffffffffffffffffffffff1673ffffffffffffffffffffffffffffffffffffffff168152602001908152602001600020620008d560201b620028e31760201c565b808273ffffffffffffffffffffffffffffffffffffffff16600073ffffffffffffffffffffffffffffffffffffffff167fddf252ad1be2c89b69c2b068fc378daa952ba7f163c4a11628f55a4df523b3ef60405160405180910390a45050565b600560008373ffffffffffffffffffffffffffffffffffffffff1673ffffffffffffffffffffffffffffffffffffffff168152602001908152602001600020805490506006600083815260200190815260200160002081905550600560008373ffffffffffffffffffffffffffffffffffffffff1673ffffffffffffffffffffffffffffffffffffffff1681526020019081526020016000208190806001815401808255809150509060018203906000526020600020016000909192909190915055505050565b6007805490506008600083815260200190815260200160002081905550600781908060018154018082558091505090600182039060005260206000200160009091929091909150555050565b6000806001600084815260200190815260200160002060009054906101000a900473ffffffffffffffffffffffffffffffffffffffff169050600073ffffffffffffffffffffffffffffffffffffffff168173ffffffffffffffffffffffffffffffffffffffff161415915050919050565b6001816000016000828254019250508190555050565b828054600181600116156101000203166002900490600052602060002090601f016020900481019282601f106200092e57805160ff19168380011785556200095f565b828001600101855582156200095f579182015b828111156200095e57825182559160200191906001019062000941565b5b5090506200096e919062000972565b5090565b6200099791905b808211156200099357600081600090555060010162000979565b5090565b90565b612dba80620009aa6000396000f3fe608060405234801561001057600080fd5b50600436106101375760003560e01c80636352211e116100b8578063a22cb4651161007c578063a22cb46514610729578063af00ac7d14610779578063b43936231461082a578063b88d4fde146108ef578063c87b56dd146109f4578063e985e9c514610a9b57610137565b80636352211e1461052f5780636c0360eb1461059d57806370a08231146106205780637a81eced1461067857806395d89b41146106a657610137565b806323b872dd116100ff57806323b872dd146102fe5780632a03c3c11461036c5780632f745c591461041d57806342842e0e1461047f5780634f6ccce7146104ed57610137565b806301ffc9a71461013c57806306fdde03146101a1578063081812fc14610224578063095ea7b31461029257806318160ddd146102e0575b600080fd5b6101876004803603602081101561015257600080fd5b8101908080357bffffffffffffffffffffffffffffffffffffffffffffffffffffffff19169060200190929190505050610b17565b604051808215151515815260200191505060405180910390f35b6101a9610b7e565b6040518080602001828103825283818151815260200191508051906020019080838360005b838110156101e95780820151818401526020810190506101ce565b50505050905090810190601f1680156102165780820380516001836020036101000a031916815260200191505b509250505060405180910390f35b6102506004803603602081101561023a57600080fd5b8101908080359060200190929190505050610c20565b604051808273ffffffffffffffffffffffffffffffffffffffff1673ffffffffffffffffffffffffffffffffffffffff16815260200191505060405180910390f35b6102de600480360360408110156102a857600080fd5b81019080803573ffffffffffffffffffffffffffffffffffffffff16906020019092919080359060200190929190505050610cbb565b005b6102e8610ea2565b6040518082815260200191505060405180910390f35b61036a6004803603606081101561031457600080fd5b81019080803573ffffffffffffffffffffffffffffffffffffffff169060200190929190803573ffffffffffffffffffffffffffffffffffffffff16906020019092919080359060200190929190505050610eaf565b005b6103a26004803603604081101561038257600080fd5b810190808035906020019092919080359060200190929190505050610f25565b6040518080602001828103825283818151815260200191508051906020019080838360005b838110156103e25780820151818401526020810190506103c7565b50505050905090810190601f16801561040f5780820380516001836020036101000a031916815260200191505b509250505060405180910390f35b6104696004803603604081101561043357600080fd5b81019080803573ffffffffffffffffffffffffffffffffffffffff16906020019092919080359060200190929190505050610fe3565b6040518082815260200191505060405180910390f35b6104eb6004803603606081101561049557600080fd5b81019080803573ffffffffffffffffffffffffffffffffffffffff169060200190929190803573ffffffffffffffffffffffffffffffffffffffff169060200190929190803590602001909291905050506110a2565b005b6105196004803603602081101561050357600080fd5b81019080803590602001909291905050506110c2565b6040518082815260200191505060405180910390f35b61055b6004803603602081101561054557600080fd5b8101908080359060200190929190505050611142565b604051808273ffffffffffffffffffffffffffffffffffffffff1673ffffffffffffffffffffffffffffffffffffffff16815260200191505060405180910390f35b6105a561120a565b6040518080602001828103825283818151815260200191508051906020019080838360005b838110156105e55780820151818401526020810190506105ca565b50505050905090810190601f1680156106125780820380516001836020036101000a031916815260200191505b509250505060405180910390f35b6106626004803603602081101561063657600080fd5b81019080803573ffffffffffffffffffffffffffffffffffffffff1690602001909291905050506112ac565b6040518082815260200191505060405180910390f35b6106a46004803603602081101561068e57600080fd5b8101908080359060200190929190505050611381565b005b6106ae61138e565b6040518080602001828103825283818151815260200191508051906020019080838360005b838110156106ee5780820151818401526020810190506106d3565b50505050905090810190601f16801561071b5780820380516001836020036101000a031916815260200191505b509250505060405180910390f35b6107776004803603604081101561073f57600080fd5b81019080803573ffffffffffffffffffffffffffffffffffffffff169060200190929190803515159060200190929190505050611430565b005b6107af6004803603604081101561078f57600080fd5b8101908080359060200190929190803590602001909291905050506115e8565b6040518080602001828103825283818151815260200191508051906020019080838360005b838110156107ef5780820151818401526020810190506107d4565b50505050905090810190601f16801561081c5780820380516001836020036101000a031916815260200191505b509250505060405180910390f35b6108ed6004803603604081101561084057600080fd5b81019080803590602001909291908035906020019064010000000081111561086757600080fd5b82018360208201111561087957600080fd5b8035906020019184600183028401116401000000008311171561089b57600080fd5b91908080601f016020809104026020016040519081016040528093929190818152602001838380828437600081840152601f19601f8201169050808301925050505050505091929192905050506116a6565b005b6109f26004803603608081101561090557600080fd5b81019080803573ffffffffffffffffffffffffffffffffffffffff169060200190929190803573ffffffffffffffffffffffffffffffffffffffff169060200190929190803590602001909291908035906020019064010000000081111561096c57600080fd5b82018360208201111561097e57600080fd5b803590602001918460018302840111640100000000831117156109a057600080fd5b91908080601f016020809104026020016040519081016040528093929190818152602001838380828437600081840152601f19601f8201169050808301925050505050505091929192905050506117d7565b005b610a2060048036036020811015610a0a57600080fd5b810190808035906020019092919050505061184f565b6040518080602001828103825283818151815260200191508051906020019080838360005b83811015610a60578082015181840152602081019050610a45565b50505050905090810190601f168015610a8d5780820380516001836020036101000a031916815260200191505b509250505060405180910390f35b610afd60048036036040811015610ab157600080fd5b81019080803573ffffffffffffffffffffffffffffffffffffffff169060200190929190803573ffffffffffffffffffffffffffffffffffffffff169060200190929190505050611a51565b604051808215151515815260200191505060405180910390f35b6000806000837bffffffffffffffffffffffffffffffffffffffffffffffffffffffff19167bffffffffffffffffffffffffffffffffffffffffffffffffffffffff1916815260200190815260200160002060009054906101000a900460ff169050919050565b606060098054600181600116156101000203166002900480601f016020809104026020016040519081016040528092919081815260200182805460018160011615610100020316600290048015610c165780601f10610beb57610100808354040283529160200191610c16565b820191906000526020600020905b815481529060010190602001808311610bf957829003601f168201915b5050505050905090565b6000610c2b82611ae5565b610c80576040517f08c379a000000000000000000000000000000000000000000000000000000000815260040180806020018281038252602c815260200180612c58602c913960400191505060405180910390fd5b6002600083815260200190815260200160002060009054906101000a900473ffffffffffffffffffffffffffffffffffffffff169050919050565b6000610cc682611142565b90508073ffffffffffffffffffffffffffffffffffffffff168373ffffffffffffffffffffffffffffffffffffffff161415610d4d576040517f08c379a0000000000000000000000000000000000000000000000000000000008152600401808060200182810382526021815260200180612d086021913960400191505060405180910390fd5b8073ffffffffffffffffffffffffffffffffffffffff16610d6c611b57565b73ffffffffffffffffffffffffffffffffffffffff161480610d9b5750610d9a81610d95611b57565b611a51565b5b610df0576040517f08c379a0000000000000000000000000000000000000000000000000000000008152600401808060200182810382526038815260200180612bcd6038913960400191505060405180910390fd5b826002600084815260200190815260200160002060006101000a81548173ffffffffffffffffffffffffffffffffffffffff021916908373ffffffffffffffffffffffffffffffffffffffff160217905550818373ffffffffffffffffffffffffffffffffffffffff168273ffffffffffffffffffffffffffffffffffffffff167f8c5be1e5ebec7d5bd14f71427d1e84f3dd0314c0f7b2291e5b200ac8c7c3b92560405160405180910390a4505050565b6000600780549050905090565b610ec0610eba611b57565b82611b5f565b610f15576040517f08c379a0000000000000000000000000000000000000000000000000000000008152600401808060200182810382526031815260200180612d296031913960400191505060405180910390fd5b610f20838383611c53565b505050565b600e602052816000526040600020816113888110610f3f57fe5b01600091509150508054600181600116156101000203166002900480601f016020809104026020016040519081016040528092919081815260200182805460018160011615610100020316600290048015610fdb5780601f10610fb057610100808354040283529160200191610fdb565b820191906000526020600020905b815481529060010190602001808311610fbe57829003601f168201915b505050505081565b6000610fee836112ac565b8210611045576040517f08c379a000000000000000000000000000000000000000000000000000000000815260040180806020018281038252602b815260200180612b20602b913960400191505060405180910390fd5b600560008473ffffffffffffffffffffffffffffffffffffffff1673ffffffffffffffffffffffffffffffffffffffff168152602001908152602001600020828154811061108f57fe5b9060005260206000200154905092915050565b6110bd838383604051806020016040528060008152506117d7565b505050565b60006110cc610ea2565b8210611123576040517f08c379a000000000000000000000000000000000000000000000000000000000815260040180806020018281038252602c815260200180612d5a602c913960400191505060405180910390fd5b6007828154811061113057fe5b90600052602060002001549050919050565b6000806001600084815260200190815260200160002060009054906101000a900473ffffffffffffffffffffffffffffffffffffffff169050600073ffffffffffffffffffffffffffffffffffffffff168173ffffffffffffffffffffffffffffffffffffffff161415611201576040517f08c379a0000000000000000000000000000000000000000000000000000000008152600401808060200182810382526029815260200180612c2f6029913960400191505060405180910390fd5b80915050919050565b6060600b8054600181600116156101000203166002900480601f0160208091040260200160405190810160405280929190818152602001828054600181600116156101000203166002900480156112a25780601f10611277576101008083540402835291602001916112a2565b820191906000526020600020905b81548152906001019060200180831161128557829003601f168201915b5050505050905090565b60008073ffffffffffffffffffffffffffffffffffffffff168273ffffffffffffffffffffffffffffffffffffffff161415611333576040517f08c379a000000000000000000000000000000000000000000000000000000000815260040180806020018281038252602a815260200180612c05602a913960400191505060405180910390fd5b61137a600360008473ffffffffffffffffffffffffffffffffffffffff1673ffffffffffffffffffffffffffffffffffffffff168152602001908152602001600020611c77565b9050919050565b61138b3382611c85565b50565b6060600a8054600181600116156101000203166002900480601f0160208091040260200160405190810160405280929190818152602001828054600181600116156101000203166002900480156114265780601f106113fb57610100808354040283529160200191611426565b820191906000526020600020905b81548152906001019060200180831161140957829003601f168201915b5050505050905090565b611438611b57565b73ffffffffffffffffffffffffffffffffffffffff168273ffffffffffffffffffffffffffffffffffffffff1614156114d9576040517f08c379a00000000000000000000000000000000000000000000000000000000081526004018080602001828103825260198152602001807f4552433732313a20617070726f766520746f2063616c6c65720000000000000081525060200191505060405180910390fd5b80600460006114e6611b57565b73ffffffffffffffffffffffffffffffffffffffff1673ffffffffffffffffffffffffffffffffffffffff16815260200190815260200160002060008473ffffffffffffffffffffffffffffffffffffffff1673ffffffffffffffffffffffffffffffffffffffff16815260200190815260200160002060006101000a81548160ff0219169083151502179055508173ffffffffffffffffffffffffffffffffffffffff16611593611b57565b73ffffffffffffffffffffffffffffffffffffffff167f17307eab39ab6107e8899845ad3d59bd9653f200f220920489ca2b5937696c3183604051808215151515815260200191505060405180910390a35050565b600d60205281600052604060002081611388811061160257fe5b01600091509150508054600181600116156101000203166002900480601f01602080910402602001604051908101604052809291908181526020018280546001816001161561010002031660029004801561169e5780601f106116735761010080835404028352916020019161169e565b820191906000526020600020905b81548152906001019060200180831161168157829003601f168201915b505050505081565b60008151905060608290506000600161138884816116c057fe5b06019050600080905060606113886040519080825280601f01601f1916602001820160405280156117005781602001600182028038833980820191505090505b509050606060008090505b848110156117cc5760008090505b6113888110156117975786858151811061172f57fe5b602001015160f81c60f81b84838151811061174657fe5b60200101907effffffffffffffffffffffffffffffffffffffffffffffffffffffffffffff1916908160001a90535084806001019550508781141561178a57611797565b8080600101915050611719565b508291506117a58983611ca6565b8880600101995050604051806020016040528060008152509250808060010191505061170b565b505050505050505050565b6117e86117e2611b57565b83611b5f565b61183d576040517f08c379a0000000000000000000000000000000000000000000000000000000008152600401808060200182810382526031815260200180612d296031913960400191505060405180910390fd5b61184984848484611d30565b50505050565b606061185a82611ae5565b6118af576040517f08c379a000000000000000000000000000000000000000000000000000000000815260040180806020018281038252602f815260200180612cd9602f913960400191505060405180910390fd5b6060600c60008481526020019081526020016000208054600181600116156101000203166002900480601f0160208091040260200160405190810160405280929190818152602001828054600181600116156101000203166002900480156119585780601f1061192d57610100808354040283529160200191611958565b820191906000526020600020905b81548152906001019060200180831161193b57829003601f168201915b505050505090506000815114156119815760405180602001604052806000815250915050611a4c565b600b8160405160200180838054600181600116156101000203166002900480156119e25780601f106119c05761010080835404028352918201916119e2565b820191906000526020600020905b8154815290600101906020018083116119ce575b505082805190602001908083835b60208310611a1357805182526020820191506020810190506020830392506119f0565b6001836020036101000a038019825116818451168082178552505050505050905001925050506040516020818303038152906040529150505b919050565b6000600460008473ffffffffffffffffffffffffffffffffffffffff1673ffffffffffffffffffffffffffffffffffffffff16815260200190815260200160002060008373ffffffffffffffffffffffffffffffffffffffff1673ffffffffffffffffffffffffffffffffffffffff16815260200190815260200160002060009054906101000a900460ff16905092915050565b6000806001600084815260200190815260200160002060009054906101000a900473ffffffffffffffffffffffffffffffffffffffff169050600073ffffffffffffffffffffffffffffffffffffffff168173ffffffffffffffffffffffffffffffffffffffff161415915050919050565b600033905090565b6000611b6a82611ae5565b611bbf576040517f08c379a000000000000000000000000000000000000000000000000000000000815260040180806020018281038252602c815260200180612ba1602c913960400191505060405180910390fd5b6000611bca83611142565b90508073ffffffffffffffffffffffffffffffffffffffff168473ffffffffffffffffffffffffffffffffffffffff161480611c3957508373ffffffffffffffffffffffffffffffffffffffff16611c2184610c20565b73ffffffffffffffffffffffffffffffffffffffff16145b80611c4a5750611c498185611a51565b5b91505092915050565b611c5e838383611da2565b611c688382611ffd565b611c72828261219b565b505050565b600081600001549050919050565b611c8f8282612262565b611c99828261219b565b611ca28161247a565b5050565b611caf82611ae5565b611d04576040517f08c379a000000000000000000000000000000000000000000000000000000000815260040180806020018281038252602c815260200180612c84602c913960400191505060405180910390fd5b80600c60008481526020019081526020016000209080519060200190611d2b929190612a4e565b505050565b611d3b848484611c53565b611d47848484846124c6565b611d9c576040517f08c379a0000000000000000000000000000000000000000000000000000000008152600401808060200182810382526032815260200180612b4b6032913960400191505060405180910390fd5b50505050565b8273ffffffffffffffffffffffffffffffffffffffff16611dc282611142565b73ffffffffffffffffffffffffffffffffffffffff1614611e2e576040517f08c379a0000000000000000000000000000000000000000000000000000000008152600401808060200182810382526029815260200180612cb06029913960400191505060405180910390fd5b600073ffffffffffffffffffffffffffffffffffffffff168273ffffffffffffffffffffffffffffffffffffffff161415611eb4576040517f08c379a0000000000000000000000000000000000000000000000000000000008152600401808060200182810382526024815260200180612b7d6024913960400191505060405180910390fd5b611ebd81612802565b611f04600360008573ffffffffffffffffffffffffffffffffffffffff1673ffffffffffffffffffffffffffffffffffffffff1681526020019081526020016000206128c0565b611f4b600360008473ffffffffffffffffffffffffffffffffffffffff1673ffffffffffffffffffffffffffffffffffffffff1681526020019081526020016000206128e3565b816001600083815260200190815260200160002060006101000a81548173ffffffffffffffffffffffffffffffffffffffff021916908373ffffffffffffffffffffffffffffffffffffffff160217905550808273ffffffffffffffffffffffffffffffffffffffff168473ffffffffffffffffffffffffffffffffffffffff167fddf252ad1be2c89b69c2b068fc378daa952ba7f163c4a11628f55a4df523b3ef60405160405180910390a4505050565b60006120556001600560008673ffffffffffffffffffffffffffffffffffffffff1673ffffffffffffffffffffffffffffffffffffffff168152602001908152602001600020805490506128f990919063ffffffff16565b9050600060066000848152602001908152602001600020549050818114612142576000600560008673ffffffffffffffffffffffffffffffffffffffff1673ffffffffffffffffffffffffffffffffffffffff16815260200190815260200160002083815481106120c257fe5b9060005260206000200154905080600560008773ffffffffffffffffffffffffffffffffffffffff1673ffffffffffffffffffffffffffffffffffffffff168152602001908152602001600020838154811061211a57fe5b9060005260206000200181905550816006600083815260200190815260200160002081905550505b600560008573ffffffffffffffffffffffffffffffffffffffff1673ffffffffffffffffffffffffffffffffffffffff1681526020019081526020016000208054809190600190036121949190612ace565b5050505050565b600560008373ffffffffffffffffffffffffffffffffffffffff1673ffffffffffffffffffffffffffffffffffffffff168152602001908152602001600020805490506006600083815260200190815260200160002081905550600560008373ffffffffffffffffffffffffffffffffffffffff1673ffffffffffffffffffffffffffffffffffffffff1681526020019081526020016000208190806001815401808255809150509060018203906000526020600020016000909192909190915055505050565b600073ffffffffffffffffffffffffffffffffffffffff168273ffffffffffffffffffffffffffffffffffffffff161415612305576040517f08c379a00000000000000000000000000000000000000000000000000000000081526004018080602001828103825260208152602001807f4552433732313a206d696e7420746f20746865207a65726f206164647265737381525060200191505060405180910390fd5b61230e81611ae5565b15612381576040517f08c379a000000000000000000000000000000000000000000000000000000000815260040180806020018281038252601c8152602001807f4552433732313a20746f6b656e20616c7265616479206d696e7465640000000081525060200191505060405180910390fd5b816001600083815260200190815260200160002060006101000a81548173ffffffffffffffffffffffffffffffffffffffff021916908373ffffffffffffffffffffffffffffffffffffffff16021790555061241a600360008473ffffffffffffffffffffffffffffffffffffffff1673ffffffffffffffffffffffffffffffffffffffff1681526020019081526020016000206128e3565b808273ffffffffffffffffffffffffffffffffffffffff16600073ffffffffffffffffffffffffffffffffffffffff167fddf252ad1be2c89b69c2b068fc378daa952ba7f163c4a11628f55a4df523b3ef60405160405180910390a45050565b6007805490506008600083815260200190815260200160002081905550600781908060018154018082558091505090600182039060005260206000200160009091929091909150555050565b60006124e78473ffffffffffffffffffffffffffffffffffffffff16612943565b6124f457600190506127fa565b600060608573ffffffffffffffffffffffffffffffffffffffff168673ffffffffffffffffffffffffffffffffffffffff1663150b7a02905060e01b612538611b57565b898888604051602401808573ffffffffffffffffffffffffffffffffffffffff1673ffffffffffffffffffffffffffffffffffffffff1681526020018473ffffffffffffffffffffffffffffffffffffffff1673ffffffffffffffffffffffffffffffffffffffff16815260200183815260200180602001828103825283818151815260200191508051906020019080838360005b838110156125e85780820151818401526020810190506125cd565b50505050905090810190601f1680156126155780820380516001836020036101000a031916815260200191505b5095505050505050604051602081830303815290604052907bffffffffffffffffffffffffffffffffffffffffffffffffffffffff19166020820180517bffffffffffffffffffffffffffffffffffffffffffffffffffffffff83818316178352505050506040518082805190602001908083835b602083106126ad578051825260208201915060208101905060208303925061268a565b6001836020036101000a0380198251168184511680821785525050505050509050019150506000604051808303816000865af19150503d806000811461270f576040519150601f19603f3d011682016040523d82523d6000602084013e612714565b606091505b509150915081612782576000815111156127315780518082602001fd5b6040517f08c379a0000000000000000000000000000000000000000000000000000000008152600401808060200182810382526032815260200180612b4b6032913960400191505060405180910390fd5b600081806020019051602081101561279957600080fd5b8101908080519060200190929190505050905063150b7a0260e01b7bffffffffffffffffffffffffffffffffffffffffffffffffffffffff1916817bffffffffffffffffffffffffffffffffffffffffffffffffffffffff19161493505050505b949350505050565b600073ffffffffffffffffffffffffffffffffffffffff166002600083815260200190815260200160002060009054906101000a900473ffffffffffffffffffffffffffffffffffffffff1673ffffffffffffffffffffffffffffffffffffffff16146128bd5760006002600083815260200190815260200160002060006101000a81548173ffffffffffffffffffffffffffffffffffffffff021916908373ffffffffffffffffffffffffffffffffffffffff1602179055505b50565b6128d8600182600001546128f990919063ffffffff16565b816000018190555050565b6001816000016000828254019250508190555050565b600061293b83836040518060400160405280601e81526020017f536166654d6174683a207375627472616374696f6e206f766572666c6f77000081525061298e565b905092915050565b60008060007fc5d2460186f7233c927e7db2dcc703c0e500b653ca82273b7bfad8045d85a47060001b9050833f915080821415801561298557506000801b8214155b92505050919050565b6000838311158290612a3b576040517f08c379a00000000000000000000000000000000000000000000000000000000081526004018080602001828103825283818151815260200191508051906020019080838360005b83811015612a005780820151818401526020810190506129e5565b50505050905090810190601f168015612a2d5780820380516001836020036101000a031916815260200191505b509250505060405180910390fd5b5060008385039050809150509392505050565b828054600181600116156101000203166002900490600052602060002090601f016020900481019282601f10612a8f57805160ff1916838001178555612abd565b82800160010185558215612abd579182015b82811115612abc578251825591602001919060010190612aa1565b5b509050612aca9190612afa565b5090565b815481835581811115612af557818360005260206000209182019101612af49190612afa565b5b505050565b612b1c91905b80821115612b18576000816000905550600101612b00565b5090565b9056fe455243373231456e756d657261626c653a206f776e657220696e646578206f7574206f6620626f756e64734552433732313a207472616e7366657220746f206e6f6e20455243373231526563656976657220696d706c656d656e7465724552433732313a207472616e7366657220746f20746865207a65726f20616464726573734552433732313a206f70657261746f7220717565727920666f72206e6f6e6578697374656e7420746f6b656e4552433732313a20617070726f76652063616c6c6572206973206e6f74206f776e6572206e6f7220617070726f76656420666f7220616c6c4552433732313a2062616c616e636520717565727920666f7220746865207a65726f20616464726573734552433732313a206f776e657220717565727920666f72206e6f6e6578697374656e7420746f6b656e4552433732313a20617070726f76656420717565727920666f72206e6f6e6578697374656e7420746f6b656e4552433732314d657461646174613a2055524920736574206f66206e6f6e6578697374656e7420746f6b656e4552433732313a207472616e73666572206f6620746f6b656e2074686174206973206e6f74206f776e4552433732314d657461646174613a2055524920717565727920666f72206e6f6e6578697374656e7420746f6b656e4552433732313a20617070726f76616c20746f2063757272656e74206f776e65724552433732313a207472616e736665722063616c6c6572206973206e6f74206f776e6572206e6f7220617070726f766564455243373231456e756d657261626c653a20676c6f62616c20696e646578206f7574206f6620626f756e6473a265627a7a72315820c4edce07c11450d3f264f60c4e7d354cddf5597b3e26e33a0ff494782d1e51ac64736f6c634300051000324552433732314d657461646174613a2055524920736574206f66206e6f6e6578697374656e7420746f6b656e",
  "source": "pragma solidity >=0.4.24 <0.6.3;\nimport \"openzeppelin-solidity/contracts/token/ERC721/ERC721Full.sol\";\nimport \"openzeppelin-solidity/contracts/token/ERC721/ERC721Metadata.sol\";\n\ncontract Asset is ERC721Full {\n    constructor(\n        string memory name,\n        string memory symbol,\n        uint256 tokenId,\n        string memory tokenURI\n    ) public ERC721Full(name, symbol) {\n        _mint(msg.sender, tokenId);\n        _setTokenURI(tokenId, tokenURI);\n    }\n    struct amount {\n        uint256 count;\n    }\n    mapping(uint256 => string[5000]) public URI;\n    mapping(uint256 => bytes[5000]) public STR;\n\n    function addTokenURI(uint256 tokenId, string memory tokenURI) public {\n        uint256 len = bytes(tokenURI).length; //serch size of URI string\n        bytes memory bytesURI = bytes(tokenURI);\n        uint256 array = (len % 5000) + 1;\n        uint256 point = 0; //role pointer\n\n        bytes memory strbyte = new bytes(5000);\n        string memory sendURI;\n\n        for (uint256 i = 0; i < array; i++) {\n            for (uint256 j = 0; j < 5000; j++) {\n                strbyte[i] = bytesURI[point];\n                point++;\n                if (j == len) {\n                    break;\n                }\n            }\n            sendURI = string(strbyte);\n            _setTokenURI(tokenId, sendURI);\n            tokenId++;\n            strbyte = \"\";\n        }\n    }\n\n    function _mintToken(uint256 tokenId) public {\n        _mint(msg.sender, tokenId);\n    }\n}\n",
  "sourcePath": "/home/tuser/lab/Project/Blockchain/CoinSystem/DocumentsOfCirculate/truffle/contracts/TestERC721.sol",
  "compiler": {
    "name": "solc",
    "version": "0.5.16+commit.9c3226ce.Emscripten.clang"
  },
  "schemaVersion": "3.0.23",
  "updatedAt": "2020-03-18T20:23:48.828Z",
  "devdoc": {
    "methods": {
      "approve(address,uint256)": {
        "details": "Approves another address to transfer the given token ID The zero address indicates there is no approved address. There can only be one approved address per token at a given time. Can only be called by the token owner or an approved operator.",
        "params": {
          "to": "address to be approved for the given token ID",
          "tokenId": "uint256 ID of the token to be approved"
        }
      },
      "balanceOf(address)": {
        "details": "Gets the balance of the specified address.",
        "params": {
          "owner": "address to query the balance of"
        },
        "return": "uint256 representing the amount owned by the passed address"
      },
      "baseURI()": {
        "details": "Returns the base URI set via {_setBaseURI}. This will be automatically added as a preffix in {tokenURI} to each token's URI, when they are non-empty.    * _Available since v2.5.0._"
      },
      "getApproved(uint256)": {
        "details": "Gets the approved address for a token ID, or zero if no address set Reverts if the token ID does not exist.",
        "params": {
          "tokenId": "uint256 ID of the token to query the approval of"
        },
        "return": "address currently approved for the given token ID"
      },
      "isApprovedForAll(address,address)": {
        "details": "Tells whether an operator is approved by a given owner.",
        "params": {
          "operator": "operator address which you want to query the approval of",
          "owner": "owner address which you want to query the approval of"
        },
        "return": "bool whether the given operator is approved by the given owner"
      },
      "name()": {
        "details": "Gets the token name.",
        "return": "string representing the token name"
      },
      "ownerOf(uint256)": {
        "details": "Gets the owner of the specified token ID.",
        "params": {
          "tokenId": "uint256 ID of the token to query the owner of"
        },
        "return": "address currently marked as the owner of the given token ID"
      },
      "safeTransferFrom(address,address,uint256)": {
        "details": "Safely transfers the ownership of a given token ID to another address If the target address is a contract, it must implement {IERC721Receiver-onERC721Received}, which is called upon a safe transfer, and return the magic value `bytes4(keccak256(\"onERC721Received(address,address,uint256,bytes)\"))`; otherwise, the transfer is reverted. Requires the msg.sender to be the owner, approved, or operator",
        "params": {
          "from": "current owner of the token",
          "to": "address to receive the ownership of the given token ID",
          "tokenId": "uint256 ID of the token to be transferred"
        }
      },
      "safeTransferFrom(address,address,uint256,bytes)": {
        "details": "Safely transfers the ownership of a given token ID to another address If the target address is a contract, it must implement {IERC721Receiver-onERC721Received}, which is called upon a safe transfer, and return the magic value `bytes4(keccak256(\"onERC721Received(address,address,uint256,bytes)\"))`; otherwise, the transfer is reverted. Requires the _msgSender() to be the owner, approved, or operator",
        "params": {
          "_data": "bytes data to send along with a safe transfer check",
          "from": "current owner of the token",
          "to": "address to receive the ownership of the given token ID",
          "tokenId": "uint256 ID of the token to be transferred"
        }
      },
      "setApprovalForAll(address,bool)": {
        "details": "Sets or unsets the approval of a given operator An operator is allowed to transfer all tokens of the sender on their behalf.",
        "params": {
          "approved": "representing the status of the approval to be set",
          "to": "operator address to set the approval"
        }
      },
      "supportsInterface(bytes4)": {
        "details": "See {IERC165-supportsInterface}.     * Time complexity O(1), guaranteed to always use less than 30 000 gas."
      },
      "symbol()": {
        "details": "Gets the token symbol.",
        "return": "string representing the token symbol"
      },
      "tokenByIndex(uint256)": {
        "details": "Gets the token ID at a given index of all the tokens in this contract Reverts if the index is greater or equal to the total number of tokens.",
        "params": {
          "index": "uint256 representing the index to be accessed of the tokens list"
        },
        "return": "uint256 token ID at the given index of the tokens list"
      },
      "tokenOfOwnerByIndex(address,uint256)": {
        "details": "Gets the token ID at a given index of the tokens list of the requested owner.",
        "params": {
          "index": "uint256 representing the index to be accessed of the requested tokens list",
          "owner": "address owning the tokens list to be accessed"
        },
        "return": "uint256 token ID at the given index of the tokens list owned by the requested address"
      },
      "tokenURI(uint256)": {
        "details": "Returns the URI for a given token ID. May return an empty string.     * If the token's URI is non-empty and a base URI was set (via {_setBaseURI}), it will be added to the token ID's URI as a prefix.     * Reverts if the token ID does not exist."
      },
      "totalSupply()": {
        "details": "Gets the total amount of tokens stored by the contract.",
        "return": "uint256 representing the total amount of tokens"
      },
      "transferFrom(address,address,uint256)": {
        "details": "Transfers the ownership of a given token ID to another address. Usage of this method is discouraged, use {safeTransferFrom} whenever possible. Requires the msg.sender to be the owner, approved, or operator.",
        "params": {
          "from": "current owner of the token",
          "to": "address to receive the ownership of the given token ID",
          "tokenId": "uint256 ID of the token to be transferred"
        }
      }
    }
  },
  "userdoc": {
    "methods": {}
  }
}