{
  "contractName": "Datastock",
  "abi": [
    {
      "inputs": [],
      "payable": false,
      "stateMutability": "nonpayable",
      "type": "constructor"
    },
    {
      "anonymous": false,
      "inputs": [
        {
          "indexed": false,
          "internalType": "address",
          "name": "x",
          "type": "address"
        },
        {
          "indexed": false,
          "internalType": "address",
          "name": "y",
          "type": "address"
        },
        {
          "indexed": false,
          "internalType": "string",
          "name": "z",
          "type": "string"
        }
      ],
      "name": "StockEvent",
      "type": "event"
    },
    {
      "anonymous": false,
      "inputs": [
        {
          "indexed": false,
          "internalType": "uint256",
          "name": "",
          "type": "uint256"
        }
      ],
      "name": "callNumber",
      "type": "event"
    },
    {
      "constant": true,
      "inputs": [
        {
          "internalType": "uint256",
          "name": "",
          "type": "uint256"
        }
      ],
      "name": "datas",
      "outputs": [
        {
          "internalType": "address",
          "name": "Publisher",
          "type": "address"
        },
        {
          "internalType": "address",
          "name": "Destination",
          "type": "address"
        },
        {
          "internalType": "string",
          "name": "DocData",
          "type": "string"
        }
      ],
      "payable": false,
      "stateMutability": "view",
      "type": "function"
    },
    {
      "constant": false,
      "inputs": [
        {
          "internalType": "string",
          "name": "docdata",
          "type": "string"
        }
      ],
      "name": "deploy",
      "outputs": [],
      "payable": false,
      "stateMutability": "nonpayable",
      "type": "function"
    },
    {
      "constant": false,
      "inputs": [],
      "name": "getNumber",
      "outputs": [
        {
          "internalType": "uint256",
          "name": "",
          "type": "uint256"
        }
      ],
      "payable": false,
      "stateMutability": "nonpayable",
      "type": "function"
    },
    {
      "constant": true,
      "inputs": [
        {
          "internalType": "uint256",
          "name": "number",
          "type": "uint256"
        }
      ],
      "name": "callData",
      "outputs": [
        {
          "internalType": "address",
          "name": "",
          "type": "address"
        },
        {
          "internalType": "address",
          "name": "",
          "type": "address"
        },
        {
          "internalType": "string",
          "name": "",
          "type": "string"
        }
      ],
      "payable": false,
      "stateMutability": "view",
      "type": "function"
    }
  ],
  "bytecode": "0x608060405234801561001057600080fd5b5060006040518060600160405280600073ffffffffffffffffffffffffffffffffffffffff168152602001600073ffffffffffffffffffffffffffffffffffffffff1681526020016040518060400160405280600181526020017f20000000000000000000000000000000000000000000000000000000000000008152508152509080600181540180825580915050906001820390600052602060002090600302016000909192909190915060008201518160000160006101000a81548173ffffffffffffffffffffffffffffffffffffffff021916908373ffffffffffffffffffffffffffffffffffffffff16021790555060208201518160010160006101000a81548173ffffffffffffffffffffffffffffffffffffffff021916908373ffffffffffffffffffffffffffffffffffffffff160217905550604082015181600201908051906020019061016692919061016f565b50505050610214565b828054600181600116156101000203166002900490600052602060002090601f016020900481019282601f106101b057805160ff19168380011785556101de565b828001600101855582156101de579182015b828111156101dd5782518255916020019190600101906101c2565b5b5090506101eb91906101ef565b5090565b61021191905b8082111561020d5760008160009055506001016101f5565b5090565b90565b6108eb806102236000396000f3fe608060405234801561001057600080fd5b506004361061004c5760003560e01c8063c0a094fd14610051578063c76023161461015e578063e5d60ce114610219578063f2c9ecd814610326575b600080fd5b61007d6004803603602081101561006757600080fd5b8101908080359060200190929190505050610344565b604051808473ffffffffffffffffffffffffffffffffffffffff1673ffffffffffffffffffffffffffffffffffffffff1681526020018373ffffffffffffffffffffffffffffffffffffffff1673ffffffffffffffffffffffffffffffffffffffff16815260200180602001828103825283818151815260200191508051906020019080838360005b83811015610121578082015181840152602081019050610106565b50505050905090810190601f16801561014e5780820380516001836020036101000a031916815260200191505b5094505050505060405180910390f35b6102176004803603602081101561017457600080fd5b810190808035906020019064010000000081111561019157600080fd5b8201836020820111156101a357600080fd5b803590602001918460018302840111640100000000831117156101c557600080fd5b91908080601f016020809104026020016040519081016040528093929190818152602001838380828437600081840152601f19601f820116905080830192505050505050509192919290505050610453565b005b6102456004803603602081101561022f57600080fd5b810190808035906020019092919050505061067e565b604051808473ffffffffffffffffffffffffffffffffffffffff1673ffffffffffffffffffffffffffffffffffffffff1681526020018373ffffffffffffffffffffffffffffffffffffffff1673ffffffffffffffffffffffffffffffffffffffff16815260200180602001828103825283818151815260200191508051906020019080838360005b838110156102e95780820151818401526020810190506102ce565b50505050905090810190601f1680156103165780820380516001836020036101000a031916815260200191505b5094505050505060405180910390f35b61032e6107c8565b6040518082815260200191505060405180910390f35b6000818154811061035157fe5b90600052602060002090600302016000915090508060000160009054906101000a900473ffffffffffffffffffffffffffffffffffffffff16908060010160009054906101000a900473ffffffffffffffffffffffffffffffffffffffff1690806002018054600181600116156101000203166002900480601f0160208091040260200160405190810160405280929190818152602001828054600181600116156101000203166002900480156104495780601f1061041e57610100808354040283529160200191610449565b820191906000526020600020905b81548152906001019060200180831161042c57829003601f168201915b5050505050905083565b600060405180606001604052803373ffffffffffffffffffffffffffffffffffffffff168152602001600073ffffffffffffffffffffffffffffffffffffffff168152602001838152509080600181540180825580915050906001820390600052602060002090600302016000909192909190915060008201518160000160006101000a81548173ffffffffffffffffffffffffffffffffffffffff021916908373ffffffffffffffffffffffffffffffffffffffff16021790555060208201518160010160006101000a81548173ffffffffffffffffffffffffffffffffffffffff021916908373ffffffffffffffffffffffffffffffffffffffff1602179055506040820151816002019080519060200190610572929190610811565b505050507fba21660700f77617cade5b53f9d953becadd95f1fd719235c4a01f8dedff258d33600083604051808473ffffffffffffffffffffffffffffffffffffffff1673ffffffffffffffffffffffffffffffffffffffff1681526020018373ffffffffffffffffffffffffffffffffffffffff1673ffffffffffffffffffffffffffffffffffffffff16815260200180602001828103825283818151815260200191508051906020019080838360005b8381101561063f578082015181840152602081019050610624565b50505050905090810190601f16801561066c5780820380516001836020036101000a031916815260200191505b5094505050505060405180910390a150565b60008060606000848154811061069057fe5b906000526020600020906003020160000160009054906101000a900473ffffffffffffffffffffffffffffffffffffffff16600085815481106106cf57fe5b906000526020600020906003020160010160009054906101000a900473ffffffffffffffffffffffffffffffffffffffff166000868154811061070e57fe5b9060005260206000209060030201600201808054600181600116156101000203166002900480601f0160208091040260200160405190810160405280929190818152602001828054600181600116156101000203166002900480156107b45780601f10610789576101008083540402835291602001916107b4565b820191906000526020600020905b81548152906001019060200180831161079757829003601f168201915b505050505090509250925092509193909250565b60007ff1bed61f3429d2b721e97e107716050bb4e189b06bc2cc05c3e5c2c185f92c686000805490506040518082815260200191505060405180910390a1600080549050905090565b828054600181600116156101000203166002900490600052602060002090601f016020900481019282601f1061085257805160ff1916838001178555610880565b82800160010185558215610880579182015b8281111561087f578251825591602001919060010190610864565b5b50905061088d9190610891565b5090565b6108b391905b808211156108af576000816000905550600101610897565b5090565b9056fea265627a7a7231582021b2d5c94ae4f0fea146d07b81736775e385f931f9196835b15b7a4f17de33f064736f6c634300050c0032",
  "source": "pragma solidity >=0.4.21 <0.6.0;\n\ncontract Datastock{\n\n    struct Data{\n        address Publisher;\n        address Destination;\n        string  DocData;\n    }\n\n    //define event\n    event StockEvent(address x,address y, string z);//deploy event\n    event callNumber(uint256);\n\n    //define structure\n    Data[] public datas;\n\n    constructor() public{\n       datas.push(Data(address(0), address(0), \" \"));\n    }\n\n    function deploy(string memory docdata) public{\n        datas.push(Data(msg.sender,address(0),docdata));//stock\n        emit StockEvent(msg.sender,address(0),docdata);//event firing\n    }\n\n    function getNumber() public returns(uint256){\n        emit callNumber(datas.length);\n        return datas.length;\n    }\n\n    function callData(uint number) public view returns (address, address, string memory){\n        return (datas[number].Publisher, datas[number].Destination, datas[number].DocData);\n    }\n\n\n}",
  "sourcePath": "/home/yuta/documents/Blockchain/erc721/server/DocumentsOfCirculate/truffle/contracts/dataStock_pull.sol",
  "compiler": {
    "name": "solc",
    "version": "0.5.12+commit.7709ece9.Emscripten.clang"
  },
  "schemaVersion": "3.0.23",
  "updatedAt": "2020-05-08T06:47:00.364Z",
  "networkType": "ethereum",
  "devdoc": {
    "methods": {}
  },
  "userdoc": {
    "methods": {}
  }
}