{
  "contractName": "SimpleStore",
  "abi": [
    {
      "constant": true,
      "inputs": [
        {
          "internalType": "uint256",
          "name": "",
          "type": "uint256"
        }
      ],
      "name": "Number",
      "outputs": [
        {
          "internalType": "uint256",
          "name": "",
          "type": "uint256"
        }
      ],
      "payable": false,
      "stateMutability": "view",
      "type": "function"
    },
    {
      "constant": true,
      "inputs": [
        {
          "internalType": "uint256",
          "name": "",
          "type": "uint256"
        }
      ],
      "name": "Store",
      "outputs": [
        {
          "internalType": "string",
          "name": "",
          "type": "string"
        }
      ],
      "payable": false,
      "stateMutability": "view",
      "type": "function"
    },
    {
      "constant": false,
      "inputs": [
        {
          "internalType": "string",
          "name": "_value",
          "type": "string"
        }
      ],
      "name": "set",
      "outputs": [],
      "payable": false,
      "stateMutability": "nonpayable",
      "type": "function"
    },
    {
      "constant": true,
      "inputs": [],
      "name": "get",
      "outputs": [
        {
          "internalType": "string",
          "name": "",
          "type": "string"
        }
      ],
      "payable": false,
      "stateMutability": "view",
      "type": "function"
    },
    {
      "constant": false,
      "inputs": [
        {
          "internalType": "string",
          "name": "STR",
          "type": "string"
        }
      ],
      "name": "Auto_num",
      "outputs": [],
      "payable": false,
      "stateMutability": "nonpayable",
      "type": "function"
    }
  ],
  "bytecode": "0x608060405234801561001057600080fd5b506106df806100206000396000f3fe608060405234801561001057600080fd5b50600436106100575760003560e01c80634ed3885e1461005c57806369404ebd146101175780636bae605e146101be5780636d4ce63c14610200578063c97a277014610283575b600080fd5b6101156004803603602081101561007257600080fd5b810190808035906020019064010000000081111561008f57600080fd5b8201836020820111156100a157600080fd5b803590602001918460018302840111640100000000831117156100c357600080fd5b91908080601f016020809104026020016040519081016040528093929190818152602001838380828437600081840152601f19601f82011690508083019250505050505050919291929050505061033e565b005b6101436004803603602081101561012d57600080fd5b8101908080359060200190929190505050610358565b6040518080602001828103825283818151815260200191508051906020019080838360005b83811015610183578082015181840152602081019050610168565b50505050905090810190601f1680156101b05780820380516001836020036101000a031916815260200191505b509250505060405180910390f35b6101ea600480360360208110156101d457600080fd5b8101908080359060200190929190505050610408565b6040518082815260200191505060405180910390f35b610208610420565b6040518080602001828103825283818151815260200191508051906020019080838360005b8381101561024857808201518184015260208101905061022d565b50505050905090810190601f1680156102755780820380516001836020036101000a031916815260200191505b509250505060405180910390f35b61033c6004803603602081101561029957600080fd5b81019080803590602001906401000000008111156102b657600080fd5b8201836020820111156102c857600080fd5b803590602001918460018302840111640100000000831117156102ea57600080fd5b91908080601f016020809104026020016040519081016040528093929190818152602001838380828437600081840152601f19601f8201169050808301925050505050505091929192905050506104c2565b005b8060009080519060200190610354929190610605565b5050565b60026020528060005260406000206000915090508054600181600116156101000203166002900480601f0160208091040260200160405190810160405280929190818152602001828054600181600116156101000203166002900480156104005780601f106103d557610100808354040283529160200191610400565b820191906000526020600020905b8154815290600101906020018083116103e357829003601f168201915b505050505081565b60016020528060005260406000206000915090505481565b606060008054600181600116156101000203166002900480601f0160208091040260200160405190810160405280929190818152602001828054600181600116156101000203166002900480156104b85780601f1061048d576101008083540402835291602001916104b8565b820191906000526020600020905b81548152906001019060200180831161049b57829003601f168201915b5050505050905090565b606081905060606109c46040519080825280601f01601f1916602001820160405280156104fe5781602001600182028038833980820191505090505b509050600080905060008451905060006109c4828161051957fe5b04905080600160008081526020019081526020016000208190555060008090505b818110156105fc5760008090505b6109c48110156105c6578385141561055f576105c6565b86858151811061056b57fe5b602001015160f81c60f81b86828151811061058257fe5b60200101907effffffffffffffffffffffffffffffffffffffffffffffffffffffffffffff1916908160001a90535084806001019550508080600101915050610548565b50846002600083815260200190815260200160002090805190602001906105ee929190610605565b50808060010191505061053a565b50505050505050565b828054600181600116156101000203166002900490600052602060002090601f016020900481019282601f1061064657805160ff1916838001178555610674565b82800160010185558215610674579182015b82811115610673578251825591602001919060010190610658565b5b5090506106819190610685565b5090565b6106a791905b808211156106a357600081600090555060010161068b565b5090565b9056fea265627a7a723158205a7d4e917cf9b642265fef51ff41bfda8dd69f538e596f8841c118fa9ab1657f64736f6c63430005100032",
  "source": "pragma solidity >=0.4.25 <0.6.3;\n\n\ncontract SimpleStore {\n    string value;\n    mapping(uint256 => uint256) public Number;\n\n    mapping(uint256 => string) public Store;\n\n    function set(string memory _value) public {\n        value = _value;\n    }\n\n    function get() public view returns (string memory) {\n        return (value);\n    }\n\n    function Auto_num(string memory STR) public {\n        bytes memory bytes_STR = bytes(STR);\n        bytes memory Split = new bytes(2500);\n\n        uint256 point = 0;\n\n        uint256 len = bytes(STR).length;\n        uint256 num = uint256(len / 2500);\n        Number[0] = num;\n\n        for (uint256 i = 0; i < num; i++) {\n            for (uint256 j = 0; j < 2500; j++) {\n                if (point == len) {\n                    break;\n                }\n                Split[j] = bytes_STR[point];\n                point++;\n            }\n            Store[i] = string(Split);\n        }\n    }\n    /*\n    function gets() public view returns (string[] memory) {\n        for(uint256 i = 0; i < ;)\n        return (Store);\n    }\n    */\n}\n",
  "sourcePath": "/home/tuser/lab/Project/Blockchain/CoinSystem/DocumentsOfCirculate/truffle/contracts/SimpleStore.sol",
  "compiler": {
    "name": "solc",
    "version": "0.5.16+commit.9c3226ce.Emscripten.clang"
  },
  "schemaVersion": "3.0.23",
  "updatedAt": "2020-05-08T06:47:00.969Z",
  "networkType": "ethereum",
  "devdoc": {
    "methods": {}
  },
  "userdoc": {
    "methods": {}
  }
}