{
  "contractName": "SplitString",
  "abi": [
    {
      "constant": true,
      "inputs": [
        {
          "internalType": "uint256",
          "name": "",
          "type": "uint256"
        }
      ],
      "name": "Number",
      "outputs": [
        {
          "internalType": "uint256",
          "name": "",
          "type": "uint256"
        }
      ],
      "payable": false,
      "stateMutability": "view",
      "type": "function"
    },
    {
      "constant": true,
      "inputs": [
        {
          "internalType": "uint256",
          "name": "",
          "type": "uint256"
        }
      ],
      "name": "Store",
      "outputs": [
        {
          "internalType": "string",
          "name": "",
          "type": "string"
        }
      ],
      "payable": false,
      "stateMutability": "view",
      "type": "function"
    },
    {
      "constant": false,
      "inputs": [
        {
          "internalType": "string",
          "name": "STR",
          "type": "string"
        }
      ],
      "name": "Auto_num",
      "outputs": [],
      "payable": false,
      "stateMutability": "nonpayable",
      "type": "function"
    }
  ],
  "bytecode": "0x608060405234801561001057600080fd5b506104ce806100206000396000f3fe608060405234801561001057600080fd5b50600436106100415760003560e01c806369404ebd146100465780636bae605e146100ed578063c97a27701461012f575b600080fd5b6100726004803603602081101561005c57600080fd5b81019080803590602001909291905050506101ea565b6040518080602001828103825283818151815260200191508051906020019080838360005b838110156100b2578082015181840152602081019050610097565b50505050905090810190601f1680156100df5780820380516001836020036101000a031916815260200191505b509250505060405180910390f35b6101196004803603602081101561010357600080fd5b810190808035906020019092919050505061029a565b6040518082815260200191505060405180910390f35b6101e86004803603602081101561014557600080fd5b810190808035906020019064010000000081111561016257600080fd5b82018360208201111561017457600080fd5b8035906020019184600183028401116401000000008311171561019657600080fd5b91908080601f016020809104026020016040519081016040528093929190818152602001838380828437600081840152601f19601f8201169050808301925050505050505091929192905050506102b2565b005b60006020528060005260406000206000915090508054600181600116156101000203166002900480601f0160208091040260200160405190810160405280929190818152602001828054600181600116156101000203166002900480156102925780601f1061026757610100808354040283529160200191610292565b820191906000526020600020905b81548152906001019060200180831161027557829003601f168201915b505050505081565b60016020528060005260406000206000915090505481565b606081905060606109c46040519080825280601f01601f1916602001820160405280156102ee5781602001600182028038833980820191505090505b509050600080905060008451905060006109c4828161030957fe5b04905080600160008081526020019081526020016000208190555060008090505b818110156103eb5760008090505b6109c48110156103b6578385141561034f576103b6565b86858151811061035b57fe5b602001015160f81c60f81b86828151811061037257fe5b60200101907effffffffffffffffffffffffffffffffffffffffffffffffffffffffffffff1916908160001a90535084806001019550508080600101915050610338565b508460008083815260200190815260200160002090805190602001906103dd9291906103f4565b50808060010191505061032a565b50505050505050565b828054600181600116156101000203166002900490600052602060002090601f016020900481019282601f1061043557805160ff1916838001178555610463565b82800160010185558215610463579182015b82811115610462578251825591602001919060010190610447565b5b5090506104709190610474565b5090565b61049691905b8082111561049257600081600090555060010161047a565b5090565b9056fea265627a7a7231582063d773cb4c6f597e305690569454b37a05677e57b85b5d3fd91ff063a66a382264736f6c63430005100032",
  "source": "pragma solidity >=0.4.25 <0.6.3;\n\ncontract SplitString{\n    mapping(uint => string) public Store;\n    /*\n    function Set_Call_Memory(string memory STR) public returns (bytes memory,bytes memory) {\n        bytes memory bytes_STR = bytes(STR);\n        bytes memory split_one = new bytes(2500);\n        bytes memory split_Two = new bytes(2500);\n        \n        uint point = 0;\n        \n        uint len = bytes(STR).length;\n        uint num = 0;\n        \n        if(len > 3){\n            for(uint i = 0; i < 2500; i++){\n                split_one[i] = bytes_STR[point];\n                point++;\n            }\n            \n            for(uint j = 0; j < len-2500; j++){\n                split_Two[j] = bytes_STR[point];\n                point++;\n            }\n        }\n        string memory splitSTR_one = string(split_one);\n        string memory splitSTR_two = string(split_Two);\n        Store[num] = splitSTR_one;\n        Store[num+1] = splitSTR_two;\n        return(split_one, split_Two);\n    }\n    */\n    mapping(uint => uint) public Number;\n    \n    function Auto_num(string memory STR) public {\n        bytes memory bytes_STR = bytes(STR);\n        bytes memory Split = new bytes(2500);\n        \n        uint point = 0;\n        \n        uint len = bytes(STR).length;\n        uint num = uint(len/2500);\n        Number[0] = num;\n        \n        for(uint i=0; i < num; i++){\n            for(uint j = 0; j < 2500; j++){\n                if(point == len){\n                    break;\n                }\n                Split[j] = bytes_STR[point];\n                point++;\n            }\n            Store[i] = string(Split);\n        }\n        \n    }\n}",
  "sourcePath": "/home/tuser/lab/Project/Blockchain/CoinSystem/DocumentsOfCirculate/truffle/contracts/SplitString.sol",
  "compiler": {
    "name": "solc",
    "version": "0.5.16+commit.9c3226ce.Emscripten.clang"
  },
  "schemaVersion": "3.0.23",
  "updatedAt": "2020-03-18T20:35:50.491Z",
  "networkType": "ethereum",
  "devdoc": {
    "methods": {}
  },
  "userdoc": {
    "methods": {}
  }
}